:020000040800F2
:10000000704C0020913600089116000893160008E5
:10001000971600089B1600089F16000800000000B5
:10002000000000000000000000000000A31600080F
:10003000A516000800000000A7160008A916000871
:10004000AB360008AB360008AB360008AB3600080C
:10005000AB360008AB360008AB360008AB360008FC
:10006000AB360008AB360008AB360008AB360008EC
:10007000AB360008AB360008AB360008AB360008DC
:10008000AB360008AB360008AB360008AB360008CC
:10009000AB360008AB360008AB360008AB360008BC
:1000A000AB360008AB360008AB360008AB360008AC
:1000B00073280008A9280008BB280008AB360008F0
:1000C000AB360008AB360008AB360008AB3600088C
:1000D000AB36000837530008DD570008A558000864
:1000E000AB360008AB360008AB360008AB3600086C
:1000F000AB360008AB360008AB360008AB3600085C
:10010000AB360008AB360008CD280008AB36000837
:10011000495A0008AB36000843340008AB360008E3
:10012000AB360008AB360008AB360008AB3600082B
:1001300000F002F800F062F80AA090E8000C824497
:100140008344AAF10107DA4501D100F057F8AFF274
:10015000090EBAE80F0013F0010F18BFFB1A43F0A5
:1001600001031847487A0000687A00000A444FF0FB
:10017000000C10F8013B13F0070408BF10F8014B06
:100180001D1108BF10F8015B641E05D010F8016B4B
:10019000641E01F8016BF9D113F0080F1EBF10F8AF
:1001A000014BAD1C0C1B09D16D1E58BF01F801CBD2
:1001B000FAD505E014F8016B01F8016B6D1EF9D555
:1001C0009142D6D37047000000230024002500266A
:1001D000103A28BF78C1FBD8520728BF30C148BFAA
:1001E0000B607047642905F0DF84632905F09D8565
:1001F000002070471FB51FBD10B510BD05F0B8FD3C
:100200001146FFF7F7FF00F054FF05F0D6FD03B4E9
:10021000FFF7F2FF03BC05F033F8000010B5F3A0C0
:1002200005F044FC4CF2503004F08FFFFDA005F0C7
:100230003DFC0020FE4908604FF47A7004F085FF11
:1002400010BD10B5022004F0F7FF012004F0F4FF08
:1002500004F03EFF4FF4A06003F03AFA4FF4E130AF
:1002600005F01DF84FF4165005F035FA4FF416500E
:1002700005F0C8FA05F059FB03F0ACF902F0E3FF12
:10028000002002F086FC002002F091FC02F0E4FC69
:1002900002F00AF902F080F902F0E8F902F04EFAF1
:1002A000002141F61F4002F067FB41F61F41642028
:1002B00003F09AF803F0F0F803F01CF94FF4E13082
:1002C00005F0A0FAFFF7AAFF10BDF8B5002500263B
:1002D00002F0C2FC1023D7A20021084602F039FE2A
:1002E0001023D8A21946002002F033FE2801102363
:1002F000D8A2202102F02DFE02F08BFC80E000202D
:1003000003F088F9C7B2022F04D0032F04D0042FC2
:100310000AD107E0032607E06D1C082D00D1002557
:10032000012601E0022600BF00BF0A2004F00DFFF5
:10033000012E2AD102F090FC1023BEA20021084613
:1003400002F007FE1023BFA21946002002F001FEB2
:100350002907080E1023BFA2202102F0FAFD012474
:100360000CE01020BC49009051F82420611E0907C0
:10037000080E0123302102F018FE641CB748006803
:100380008442EEDD02F045FC0026022E35D1002627
:10039000B2480068401CB1490860681CAE49AF4AC9
:1003A000126841F82200002502F056FC1023A1A299
:1003B0000021084602F0CDFD1023A2A2194600201C
:1003C00002F0C7FD28011023A2A2202102F0C1FDE6
:1003D00001240CE01020A049009051F82420611E57
:1003E0000907080E0123302102F0DFFD641C9B4841
:1003F00000688442EEDD02F00CFC032E00D100E028
:100400007DE700BFF8BD10B50446012C31D19448FA
:10041000036894480268944801689448006801F0B1
:100420003CFA9248924902689248006801F0C0FA8A
:100430008E4908608C484FF4FA7102688E48006853
:1004400001F0EBFA884908608648894902688B48C0
:10045000006801F017FB8349086081484FF4FA7186
:1004600002688748006801F042FB7D49086001F09E
:1004700077FF022C31D17A4803687A4802687A48BB
:1004800001687A48006801F008FA78484FF4FA7178
:1004900002687848006801F08BFA74490860724875
:1004A000734902687448006801F0B7FA6E49086041
:1004B0006C484FF4FA7102687048006801F0E2FA83
:1004C0006849086066486A4902686D48006801F03A
:1004D0000EFB6349086001F043FF10BD2DE9F04FAA
:1004E00085B0002004900024664D0026039004A8E7
:1004F00005F074FABDF81000002875D1BDF812405F
:10050000204605F0B3FD01905F480168019805F0B1
:10051000F7FE8346039905F0F5FD814631465B48B9
:10052000006805F0EFFD0190204605F09FFD29468B
:10053000009005F0E7FD8346019905F04BFC8246EB
:10054000494605F047FC80465148006805F08EFD9D
:100550004146029005F03EFC074605F06BFD4D4913
:100560000860204605F082FD019047480168019827
:1005700005F0C6FE8346039905F0C4FD8146314669
:100580004248006805F0BEFD0190204605F06EFD72
:100590002946009005F0B6FD8346019905F01AFC46
:1005A0008246494605F016FC80463948006805F049
:1005B0005DFD4146029005F0A3FE074605F03AFDB9
:1005C00035490860324800680968401A642804DD2B
:1005D0002F4800686438304908602E4800682C496C
:1005E0000968401A642859E0AFE000002330303138
:1005F0005053434B2B303835212330303250534346
:100600004B2D32383021233030335053434B2D3073
:10061000353021233030345053434B2D333030218B
:1006200000000000244447543A312D312C31210080
:10063000A816002043686F6F7365205468696E6761
:100640007300000031203220332034203520362042
:10065000372038006F0000001C2000200C00002014
:10066000800000207C000020780000207400002022
:100670000CFEFFFF100000201400002018000020D6
:100680001C0000200000C8419801002094010020B7
:100690006C000020640000206800002004DDFD489C
:1006A00000686430FC490860FC480268FC48016846
:1006B000FC48006801F07CF9F8490860FA480268D3
:1006C000F5480168F948006801F0A7F9F6490860A3
:1006D000F7480268F2480168F648006801F0D2F96C
:1006E000F3490860F4480268EB480168F348006881
:1006F00001F0FDF9F0490860E8480068B0F5616F65
:1007000018DDE9480068B0F5616F13DDE84800685E
:10071000B0F5616F0EDD08460068B0F5616F09DD68
:100720004FF46160DD490860DF490860E049086016
:10073000E1490860E0480368DD480268DA4801687A
:10074000D648006801F0A9F8CAE0BDF8124020467A
:1007500005F08CFC0190DA480168019805F0D0FDA5
:100760008346039905F0CEFC81463146D5480068A2
:1007700005F0C8FC0190204605F078FC2946009061
:1007800005F0C0FC8346019905F024FB82464946EA
:1007900005F020FB8046BF48006805F067FC414635
:1007A000029005F017FB074605F044FCBA490860C3
:1007B000204605F05BFC0190C1480168019805F0F6
:1007C0009FFD8346039905F09DFC81463146BD4857
:1007D000006805F097FC0190204605F047FC29468B
:1007E000009005F08FFC8346019905F0F3FA8246EC
:1007F000494605F0EFFA8046A648006805F036FC49
:100800004146029005F07CFD074605F013FCA44923
:100810000860A04800680968401A642804DD9D4803
:10082000006864389E4908609B48006899490968D7
:10083000401A642804DD97480068643096490860CF
:1008400096480268944801689648006801F0B0F83C
:10085000924908609448026891480168934800688A
:1008600001F0DBF890490860914802688A48016805
:100870009048006801F006F98D4908608E480268CA
:10088000874801688D48006801F031F98A4908609D
:1008900082480068B0F5616F18DD83480068B0F5E4
:1008A000616F13DD82480068B0F5616F0EDD0846A8
:1008B0000068B0F5616F09DD4FF461607749086049
:1008C000794908607A4908607B4908607A4803687A
:1008D00077480268744801687048006800F0DDFFDE
:1008E000204605F0C3FB7649086005B0BDE8F08FEF
:1008F00008B50020009074490860684604F038FF8D
:10090000BDF800003F280ED07F2810D09F2802D0CD
:10091000BF2810D103E001206B4908600FE00120DF
:10092000694908600BE001206749086007E0012081
:100930006549086003E000206349086000BF00BF0C
:1009400062480068012829D102F0BAFD20B10220D6
:1009500002F0B6FD00287DD1042002F0DEFD012862
:100960000ED0052002F0D9FD012809D0062002F0A2
:10097000D4FD012804D0032002F0CFFD012869D165
:100980000020524908605249086052480068401CE3
:10099000504908600F20504908605BE04F484D49BE
:1009A000096850F82100012806D04C4849490968D7
:1009B00050F82100022810D14348006801280CD1CA
:1009C0004249086045484349096850F821004049B8
:1009D00008600F20404908603CE040483D490968F4
:1009E00050F8210003280FD13748006801280BD1A7
:1009F00038480068401C37490860FA2036490860CA
:100A000003203349086025E034483249096850F82A
:100A1000210048B92C480068012805D100202E4942
:100A200008602B49086015E02C482A49096850F8ED
:100A3000210004280ED12448006801280AD1254845
:100A40000068401C234908603220234908600420C4
:100A50001F49086008BD10B520481E49096850F8B4
:100A600021001B49086057E01B48006810B9FFF7D8
:100A70003FFF04E018480068401E1749086014480A
:100A8000006830B900231A461946184600F005FFE1
:100A900043E025E06C00002064000020740000208A
:100AA00068000020100000207800002014000020C2
:100AB0007C00002018000020800000201C00002086
:100AC00098010020940100205800002054000020CC
:100AD000600000205C00002088000020DC00002076
:100AE000FE480068032801D1FFF7F8FCFB480068C6
:100AF000012803D1F9480068FFF785FCF748006832
:100B0000022803D1F5480068FFF77DFCF348006830
:100B1000042801D101F020F8A6E700BF10BD10B5F0
:100B200004460120EE490860EE4804600020ED49CB
:100B300048608860EC4908600F20EC490860FFF7C6
:100B40008AFF10BDF8B5044600254FF4C876002092
:100B5000009000BF042C43DD37E0012C04DB4FF490
:100B6000FA60E349086003E04FF47A70E0490860F6
:100B70004FF4C87604E000F0EFFF012004F0E5FA3E
:100B8000301EA6F10106F6D11DE000F0E5FF684633
:100B900004F0EEFDBDF800003F280AD07F280AD0FF
:100BA0009F2802D0BF2808D101E0012507E00125D8
:100BB00005E0012503E0012501E0002500BF00BF9D
:100BC000012D00D100E0E0E700BF201EA4F10104E8
:100BD000C3D100231A461946184600F05EFE3BE0DA
:100BE00030E04FF47A70C24908604FF4C87604E0F0
:100BF00000F0B2FF012004F0A8FA301EA6F10106B1
:100C0000F6D11DE000F0A8FF684604F0B1FDBDF884
:100C100000003F280AD07F280AD09F2802D0BF2892
:100C200008D101E0012507E0012505E0012503E0E9
:100C3000012501E0002500BF00BF012D00D100E02B
:100C4000E0E700BF201EA4F10104CAD100231A4628
:100C50001946184600F021FEF8BD10B504460020E4
:100C6000A44908600A2C4ED2DFE804F04D050D15AA
:100C70001D252D353D45A0A004F018FF4FF47A70D6
:100C800004F063FA40E09FA004F010FF4FF47A7084
:100C900004F05BFA38E09FA004F008FF4FF47A708C
:100CA00004F053FA30E09FA004F000FF4FF47A7094
:100CB00004F04BFA28E09FA004F0F8FE4FF47A709D
:100CC00004F043FA20E09FA004F0F0FE4FF47A70A5
:100CD00004F03BFA18E09FA004F0E8FE4FF47A70AD
:100CE00004F033FA10E09FA004F0E0FE4FF47A70B5
:100CF00004F02BFA08E09FA004F0D8FE4FF47A70BD
:100D000004F023FA00E000BF00BF04E07948006867
:100D1000012800D100E0F9E700BF10BD10B59948E7
:100D20000068012803D10920FFF797FF0CE09548E0
:100D30000068022808D10920FFF78FFF0820FFF77D
:100D40008CFF0920FFF789FF10BDF8B50446002588
:100D50000020009000BF052C3CDD36E0012C04DBB8
:100D60004FF47A708849086003E04FF4FA708649BE
:100D70000860322604E0FFF7B1FB012004F0E5F93A
:100D8000301EA6F10106F6D11DE0FFF7A7FB68466D
:100D900004F0EEFCBDF800003F280AD07F280AD0FE
:100DA0009F2802D0BF2808D101E0012507E00125D6
:100DB00005E0012503E0012501E0002500BF00BF9B
:100DC000012D00D100E0E0E700BF201EA4F10104E6
:100DD000C4D134E02FE04FF4FA706B49086032263A
:100DE00004E0FFF77BFB012004F0AFF9301EA6F111
:100DF0000106F6D11DE0FFF771FB684604F0B8FC70
:100E0000BDF800003F280AD07F280AD09F2802D0D2
:100E1000BF2808D101E0012507E0012505E00125F3
:100E200003E0012501E0002500BF00BF012D00D136
:100E300000E0E0E700BF201EA4F10104CBD10023B5
:100E40001A461946184600F028FDF8BD10B50446AC
:100E5000002C03DD2046FFF778FF03E014B1604269
:100E6000FFF770FE10BD38B548480068C0EB0010B1
:100E7000474901EBC0004749096850F82140434801
:100E80000068C0EB0010424901EBC0014148006816
:100E9000401C51F8205001F0DFFE10233EA200213B
:100EA000184602F056F81020022322460021009036
:100EB000202002F07AF8102339A21946184602F0D1
:100EC00048F8102002232A4601460090202002F014
:100ED0006CF8102334A22021184667E0600000203F
:100EE00054000020DC0000205C000020880000206E
:100EF00070000020A8160020244447543A312D36B3
:100F00002C312100244447543A372D31322C3121E1
:100F100000000000244447543A31332D31382C313D
:100F200021000000244447543A31392D32342C3109
:100F300021000000244447543A32352D33302C31FF
:100F400021000000244447543A33312D33362C31EC
:100F500021000000244447543A33372D34312C31DA
:100F600021000000244447543A34322D34372C31C8
:100F700021000000244447543A34382D35312C31B7
:100F800021000000840000206C0000208801002067
:100F9000D42100208C010020706C61636531000059
:100FA000706C6163653200007400000001F0D1FFD5
:100FB000102002230090F74820210268084601F023
:100FC000F4FF1023F4A23021184601F0C2FF1020D4
:100FD00002230090F24830210268202001F0E5FF52
:100FE00001F017FEEB48006801280ED1EC480068BC
:100FF000012803D1E0B2FFF730FE13E0E0B2FFF7C3
:101000002CFE0720FFF729FE0CE0E24800680228CA
:1010100008D1E0B2FFF721FE0720FFF71EFEE8B27D
:10102000FFF71BFEDF48E049096850F82110DF4850
:101030000068801C814205DBDC480068801CDB49BD
:10104000086008E00020D749D74A126841F822001A
:101050000120D649086038BD38B500240020009032
:1010600000BF1DE0FFF73AFA684604F081FBBDF8C7
:1010700000003F280AD07F280AD09F2802D0BF282E
:1010800008D101E0012407E0012405E0012403E088
:10109000012401E0002400BF00BF012C00D100E0CA
:1010A000E0E700BF00231A461946184600F0F5FB9A
:1010B00038BD2DE9F843002701264FF000094FF015
:1010C0000008FFF7BEF8FFF700F9FFF7C5FF4FF480
:1010D0007A7004F03AF868E0B3480068401CB249FE
:1010E00008600020B249B04A126841F82200AF49B6
:1010F0000860B048D0F800800121AF4803F020FF1D
:1011000004E0AE480068012800D100E0F9E700BF24
:101110000020AA49086008F101043AE0002533E004
:10112000A74850F82500A74901EB04110968884237
:1011300029D19F489C49096850F82100401C9C49CE
:10114000994A126841F8220096489749096850F870
:101150002100401C9349944A126841F822009348A8
:101160000068401C91490860964800EB0410C06874
:101170008D490968C1EB0111934A02EBC1018B4A09
:10118000126841F822006D1C904800688542C7DD56
:10119000641C884800688442C0DB834800680628D5
:1011A00000D103E00120FFF7D0FD95E700BF01204B
:1011B000FFF7B5FC4FF4FA7003F0C7FF0120FFF70B
:1011C000AEFC0620784908600020754908600120BF
:1011D000764908600626B3E026E0012073490860DE
:1011E0007148006808B901271FE06F490968701A43
:1011F000FFF72CFE6C4806686D486B49096850F88B
:101200002100002806DD0120FFF789FC0220FFF7FE
:101210009CFD0AE064480068401E63490860084677
:10122000006808B9012700E0D7E700BF012F09D106
:1012300002205B490860FFF771FD002058490860F3
:1012400000277EE05A485849096850F821000228D2
:1012500031DB53480068012814D14E490860FFF77C
:1012600002FE4F480068401C4D49086050484E49F6
:10127000096850F82100401E4D494B4A126841F858
:10128000220033E04648006880BB022041490860E4
:10129000FFF7E9FD42480068801C41490860444866
:1012A0004149096850F82100801E41493E4A1268B0
:1012B00041F822001AE03E483B49096850F82100F5
:1012C000012813D133490860FFF7CDFD3448006889
:1012D000401C3349086036483349096850F82100FA
:1012E000401E3349304A126841F822000220FFF7BD
:1012F00029FC0220FFF713FC2948006802281AD1B4
:1013000029490968481EFFF7A1FDFFF707FD4FF4C3
:10131000FA7003F01AFF00202149086001262448D2
:101320002149096850F8210050B91F480068401E43
:101330001D49086004E01C480068401E1A49086006
:101340004AE700BF0020184908600720FFF7FAFBB2
:101350000220FFF7E4FB0220FFF7F4FB87E01248CE
:101360000068401C10490860002111480E4A1268AC
:1013700040F8221000200D4908600E48D0F8008087
:1013800001210D4803F0DCFD22E00C480068012833
:101390001ED11EE0300100206C6F6164000000006F
:1013A000840000205C210020880100208C010020A6
:1013B000E42000209416002000380140080000209E
:1013C0001C200020DC190020D42100200C0000206B
:1013D000DBE700BF0020A249086008F101043AE001
:1013E000002533E09F4850F825009F4901EB041188
:1013F0000968884229D19D489D49096850F8210013
:10140000401C9A499A4A126841F822009948984922
:10141000096850F82100401C9649954A126841F825
:10142000220095480068401C934908608E4800EBF4
:101430000410C1688E480068C0EB00108F4A02EBB0
:10144000C0008D4A126840F822106D1C8C4800685C
:101450008542C7DD641C8B4800688442C0DB844839
:101460000068062800D103E00120FFF76EFC76E754
:1014700000BF0120FFF753FB4FF4FA7003F065FE45
:101480000120FFF74CFB06207949086000207E49C7
:1014900008600120784908600626DCE034E001207D
:1014A000754908607248006800B9002770490968EA
:1014B000701AFFF7CBFC6E48066801F0CDFB1020D8
:1014C00000906A486A49096850F8212002230021E7
:1014D000084601F06AFD01F09CFB64486449096814
:1014E00050F82100002806DD0120FFF718FB02203C
:1014F000FFF72BFC09E05E480068401E5C4908606D
:101500000846006800B90027C9E700BF012F12D1C3
:101510000220FFF717FB0220FFF701FB0720FFF770
:1015200014FC022058490860FFF7F8FB00205649D8
:101530000860002790E04D484D49096850F82100A7
:10154000022831DB50480068012814D14F49086057
:10155000FFF789FC4C480068401C4B490860434831
:101560004349096850F82100401E4049404A12682A
:1015700041F8220033E04448006880BB0220434920
:101580000860FFF770FC40480068801C3E49086016
:1015900036483749096850F82100801E3349344ADB
:1015A000126841F822001AE030483149096850F8C1
:1015B0002100012813D135490860FFF754FC324857
:1015C0000068401C3049086028482949096850F8DB
:1015D0002100401E2549264A126841F822000220B7
:1015E000FFF7B0FA0220FFF79AFA274800680228AE
:1015F0002CD1F01EFFF72AFC0220FFF790FA0720FB
:10160000FFF7A3FBFFF78AFB4FF4FA7003F09DFD91
:1016100000201D49086015481549096850F8210047
:1016200060B913480068401E114908600720FFF7A1
:1016300089FA0120FFF773FA03260CE00720FFF771
:1016400081FA0120FFF76BFA032604E008480068DE
:10165000401E0749086021E700BF0020BDE8F8836D
:10166000080000201C200020DC190020E4200020BD
:10167000880100205C2100208C010020D421002062
:101680000C0000209416002084000020300100206F
:10169000704700BFFEE700BFFEE700BFFEE700BFE8
:1016A000FEE7704770477047704700000CB5002098
:1016B000019000906C48006840F480306A490860EE
:1016C00000BF6948006800F4003000900198401C99
:1016D0000190009818B90198B0F5A06FF1D1624857
:1016E000006800F4003010B10120009001E00020FB
:1016F00000900098012843D15C48006840F0100039
:101700005A4908600846006820F00300086008464F
:10171000006840F002000860534840685249486041
:101720000846406848600846406840F48060486069
:101730000846406820F47C1048600846406840F441
:10174000E81048600846006840F08070086000BFFC
:101750004548006800F000700028F9D04248406811
:1017600020F00300404948600846406840F002000D
:10177000486000BF3C48406800F00C000828F9D1E0
:101780000CBD10B5FFF792FF10BD10B536480068CC
:1017900040F0010034490860084640683449084078
:1017A0003149486008460068324908402E490860BF
:1017B0000846006820F4802008600846406820F44D
:1017C000FE0048604FF41F008860FFF7DAFF4FF01B
:1017D00000602949086010BD10B5002100200022DA
:1017E000214B5B6803F00C0121B1042906D00829C4
:1017F00028D107E0214B224C236027E01F4B204CCF
:10180000236023E0184B5B6803F47010164B5B6891
:1018100003F48032022303EB904022B9194B434377
:10182000174C23600DE0104B5B6803F4003323B1C9
:10183000144B4343124C236003E0104B4343104CC2
:10184000236003E00D4B0E4C236000BF00BF064B2E
:101850005B68C3F303130C4CE15C094B1B68CB4082
:10186000074C236010BD0000001002400020024021
:101870000000FFF8FFFFF6FE08ED00E000127A001E
:101880009C01002000093D00A00100200146002924
:1018900001DA484200E00846704770B5044600206F
:1018A000002C06DD2518F74E35800025F64E3560F4
:1018B00007E004F5E1552D1AF24E35800125F24E70
:1018C0003560002908DD0D18EE4E361D35800025E7
:1018D000ED4E361D356009E001F5E1552D1AE94E52
:1018E000361D35800125E84E361D3560002A07DD9E
:1018F0001518E44E083E35800025E44E356008E0BA
:1019000002F5E1552D1ADF4E083E35800125DF4EE8
:101910003560002B08DD1D18DA4E361F3580002596
:10192000D94E2036356009E003F5E1552D1AD54E24
:10193000361F35800125D44E2036356070BDD44920
:1019400009684242914202DA4142D14A1160D049CB
:101950000968814201DDCE490860CE4909684242EA
:10196000914202DA4142CB4A1160CA490968814278
:1019700001DDC8490860C84909684242914202DA5B
:101980004142C54A1160C4490968814201DDC2492A
:101990000860C24909684242914202DA4142BF4AA4
:1019A0001160BE490968814201DDBC490860704789
:1019B0002DE9F04F85B005460E4617464FF07F588B
:1019C0004FF00009AC1BB6490968601A04F04EFBE1
:1019D0004946019004F096FB0290204604F046FB35
:1019E000019088F000400090019904F08BFB834641
:1019F000029904F085FC8246384604F037FB5146D4
:101A0000039004F0E7F9049004F014FB0746A4489F
:101A10000460384605B0BDE8F08F2DE9F04F85B081
:101A200005460E4617464FF07F584FF00009AC1B95
:101A30009C490968601A04F019FB4946019004F0BA
:101A400061FB0290204604F011FB019088F00040F9
:101A50000090019904F056FB8346029904F050FC73
:101A60008246384604F002FB5146039004F0B2F976
:101A7000049004F0DFFA07468A480460384605B04F
:101A8000BDE8F08F2DE9F04F85B005460E461746AC
:101A90004FF07F584FF00009AC1B83490968601A6A
:101AA00004F0E4FA4946019004F02CFB0290204631
:101AB00004F0DCFA019088F000400090019904F0F5
:101AC00021FB8346029904F01BFC8246384604F051
:101AD000CDFA5146039004F07DF9049004F0AAFA7F
:101AE000074671480460384605B0BDE8F08F2DE91F
:101AF000F04F85B005460E4617464FF07F584FF021
:101B00000009AC1B69490968601A04F0AFFA49463C
:101B1000019004F0F7FA0290204604F0A7FA019031
:101B200088F000400090019904F0ECFA8346029995
:101B300004F0E6FB8246384604F098FA51460390DA
:101B400004F048F9049004F075FA07465748046019
:101B5000384605B0BDE8F08F70B5042001F0DDFC1B
:101B600038B9052001F0D9FC18B951480468056856
:101B700009E1042001F0D1FC60B9052001F0CDFCA1
:101B800040B14B48006800F1C80449480068A0F122
:101B9000C805F8E0042001F0C0FC60B1052001F0A8
:101BA000BCFC40B942480068A0F1C8044048006845
:101BB00000F1C805E7E0032001F0AFFC60B10420AC
:101BC00001F0ABFC40B93A48006800F5967438481B
:101BD0000068A0F59675D6E0052001F09EFC60B97E
:101BE000062001F09AFC40B931480068A0F59674CF
:101BF0002F48006800F59675C5E0032001F08DFCC4
:101C000060B9042001F089FC40B12948006800F562
:101C1000C87427480068A0F5C875B4E0052001F035
:101C20007CFC60B1062001F078FC40B920480068D7
:101C3000A0F5C8741E48006800F5C875A3E002202E
:101C400001F06BFC60B9032001F067FC40B9184853
:101C5000006800F5FA7416480068A0F5FA7592E07D
:101C6000062001F05AFC60B9072001F056FC40B98B
:101C70000F480068A0F5FA740D48006800F5FA7581
:101C800081E017E03C3401409001224288812242E9
:101C90002000002024000020280000202C0000202C
:101CA000B0010020B4010020B8010020BC010020D8
:101CB00070000020022001F030FC60B9032001F028
:101CC0002CFC40B1FE48006800F51674FC48006822
:101CD000A0F5167557E0062001F01FFC60B1072043
:101CE00001F01BFC40B9F6480068A0F51674F448F2
:101CF000006800F5167546E0012001F00EFC60B9A1
:101D0000022001F00AFC40B9ED48006800F5487473
:101D1000EB480068A0F5487535E0072001F0FDFBB1
:101D200060B9082001F0F9FB40B9E5480068A0F56A
:101D30004874E348006800F5487524E0012001F08C
:101D4000ECFB60B9022001F0E8FB40B1DC48006820
:101D500000F57A74DA480068A0F57A7513E0072078
:101D600001F0DBFB60B1082001F0D7FB40B9D4489B
:101D70000068A0F59674D248006800F5967502E0F8
:101D8000CF48046805686E427300664272006E4276
:101D9000710066427000FFF780FD70BD2DE9F05FB5
:101DA00004460D46601BC74908600846006804F0F9
:101DB0005DF98346C4480168584604F0A3F980469B
:101DC000C0490968C14A1268881A04F04FF983466D
:101DD000BF480168584604F095F98146414603F032
:101DE000F9FF0746BB48006804F040F982463946CF
:101DF00003F0F0FF064604F01DF9B64908600846F6
:101E00000068B0F5E15F02DD4FF4E1500860B148D1
:101E1000006810F5E15F02DAAF48AE490860A948F2
:101E20000068AA490860AB480068BDE8F09F2DE94A
:101E3000F05F04460D46601BA8490860084600682C
:101E400004F014F98346A0480168584604F05AF992
:101E50008046A2490968A24A1268881A04F006F965
:101E600083469B480168584604F04CF98146414638
:101E700003F0B0FF07469B48006804F0F7F882467D
:101E8000394603F0A7FF064604F0D4F895490860E8
:101E900008460068B0F5E15F02DD4FF4E1500860EC
:101EA0009048006810F5E15F02DA8B488D490860C0
:101EB0008A4800688A4908608A480068BDE8F09F3F
:101EC0002DE9F05F04460D46601B8749086008460F
:101ED000006804F0CBF883467B480168584604F05C
:101EE00011F9804680490968804A1268881A04F00E
:101EF000BDF8834676480168584604F003F98146E8
:101F0000414603F067FF07467948006804F0AEF8E1
:101F10008246394603F05EFF064604F08BF87449AA
:101F2000086008460068B0F5E15F02DD4FF4E1505B
:101F300008606F48006810F5E15F02DA66486C4996
:101F40000860694800686949086069480068BDE838
:101F5000F09F2DE9F05F04460D46601B654908605F
:101F60000846006804F082F88346574801685846DE
:101F700004F0C8F880465F4909685F4A1268881A09
:101F800004F074F8834652480168584604F0BAF8E1
:101F90008146414603F01EFF07465848006804F09A
:101FA00065F88246394603F015FF064604F042F80C
:101FB0005249086008460068B0F5E15F02DD4FF461
:101FC000E15008604D48006810F5E15F02DA4248D0
:101FD0004A49086047480068474908604748006820
:101FE000BDE8F09F2DE9F04704460D46601B04F064
:101FF0003DF843490860084601684248006803F01C
:10200000E9FE4049086040493E48006804F046F94E
:1020100002D23E483B4908603D493A48006804F016
:102020003DF802D23B48374908603B4801683448D4
:10203000006804F065F9804638480168404604F0BD
:1020400061F8064636493748006803F031FF82469A
:102050002C480168504604F055F88046284801682D
:102060003148006804F04EF88146414603F0B2FE64
:102070000746314603F0AEFE2C4908602048006850
:10208000254908602948006803F0D4FFBDE8F087BF
:102090002DE9F04704460D46601B03F0E7FF244995
:1020A0000860084601682348006803F093FE214950
:1020B000086015491F48006804F0F0F83FD23BE083
:1020C00070000020C001002050000020C801002046
:1020D0004C000020C4010020E0E3FFFFCC01002001
:1020E000D4010020D0010020D8010020E001002010
:1020F000DC010020E4010020EC010020E8010020C8
:10210000F0010020F80100200050C34700401C46A9
:102110000050C3C700401CC6FC010020480000203E
:102120000000C8424400002040000020F4010020CC
:1021300000020020080200207548764908607649B0
:102140007448006803F0AAFF02D27448714908601D
:10215000734801687348006804F0D2F880467248FA
:102160000168404603F0CEFF06467049704800689B
:1021700003F09EFE824667480168504603F0C2FFA6
:102180008046684801686B48006803F0BBFF8146E1
:10219000414603F01FFE0746314603F01BFE664929
:1021A0000860604800685E4908606348006803F0A2
:1021B00041FFBDE8F0872DE9F04704460D46601B5E
:1021C00003F054FF5D490860084601685C480068F8
:1021D00003F000FE5A4908605A495948006804F063
:1021E0005DF802D24A48564908604B495448006895
:1021F00003F054FF02D2494851490860524801682F
:102200004E48006804F07CF8804647480168404624
:1022100003F078FF064645494548006803F048FE4C
:10222000824647480168504603F06CFF80464348A9
:1022300001684048006803F065FF8146414603F0AD
:10224000C9FD0746314603F0C5FD404908603B48DB
:1022500000683D4908603D48006803F0EBFEBDE8BA
:10226000F0872DE9F04704460D46601B03F0FEFEA3
:1022700037490860084601683648006803F0AAFD3F
:10228000344908602F493348006804F007F802D247
:102290001F483049086020492E48006803F0FEFEC0
:1022A00002D21E482B4908602B4801682848006864
:1022B00004F026F880461C480168404603F022FFDF
:1022C00006461A491A48006803F0F2FD8246214882
:1022D0000168504603F016FF80461D480168154806
:1022E000006803F00FFF8146414603F073FD074687
:1022F000314603F06FFD194908601548006816491A
:1023000008601648006803F095FEBDE8F0870000FD
:1023100000401C46080200200050C3C700401CC6F5
:102320000C02002000020020480000200000C842EB
:102330004400002040000020040200201002002081
:10234000180200200050C3471C0200201402002085
:1023500020020020280200202C020020240200205D
:1023600038B54D480068002812DA0C232D220021D0
:10237000052000F072FD48480068FFF787FA044620
:102380000C20102322460021009000F00EFE0EE0EB
:102390000C232B220021052000F05FFD0C201023D0
:1023A00000903D48002102680C2000F0FEFD3B48F3
:1023B0000068002812DA0C232D221021052000F0DD
:1023C0004CFD36480068FFF761FA04460C201023E4
:1023D00022461946009000F0E8FD0EE00C232B2267
:1023E0001021052000F039FD0C20102300902B480F
:1023F000194602680C2000F0D8FD29480068002822
:1024000012DA0C232D222021052000F026FD24487D
:102410000068FFF73BFA04460C20102322462021D7
:10242000009000F0C2FD0EE00C232B22202105209D
:1024300000F013FD0C2010230090194820210268A1
:102440000C2000F0B2FD17480068002812DA0C23B7
:102450002D223021052000F000FD12480068FFF712
:1024600015FA04460C20102322463021009000F07B
:102470009CFD0EE00C232B223021052000F0EDFC0A
:102480000C20102300900748302102680C2000F037
:102490008CFD00F0BEFB38BD1000002014000020B1
:1024A000180000201C00002010B5F848806940F09A
:1024B0000100F6498861F648406840F48070F449AC
:1024C0004860F248C06940F00100F049C861084620
:1024D000806940F0040088610846806940F0080087
:1024E0008861EC48006820F07040EA4908600846BE
:1024F000006840F088400860E748006820F47040B9
:10250000E54908600846006840F4804008604FF0E4
:102510008040808940F001004FF08041888108466A
:10252000808940F04000888101231C220321184645
:1025300002F048FE00204FF0804108854FF6FF7002
:1025400088850846008820F4407008800846008886
:1025500020F0600008800846008B40F001000883EE
:102560000846008B40F4807008830846008C20F0F9
:10257000020008840846008C20F020000884002017
:1025800088840846008940F00300088108460088D6
:1025900040F00100088010BD10B5BC48C06940F093
:1025A0000200BA49C8610846806940F008008861A5
:1025B000B848001F006820F07F40B649091F086036
:1025C0000846006840F088400860B448008840F041
:1025D0000100B24908800846008840F040000880A9
:1025E00001231D220321184602F0ECFD0020AB4917
:1025F0001C3108804FF6FF70091D0880A7480C3871
:10260000008820F44070A5490C39088008460088ED
:1026100020F060000880A1480C30008840F00100E4
:102620009E490C3108800846008840F4807008807C
:102630009A481430008820F002009849143108802C
:102640000846008820F0200008809448001F008879
:1026500040F003009149091F088090480C38008819
:1026600040F001008D490C39088010BD10B5874835
:10267000C06940F004008549C8610846806940F09F
:10268000080088618448006820F07F408249086023
:102690000846006840F0884008608148008840F0A3
:1026A00001007F4908800846008840F0400008800B
:1026B00001231E220321184602F084FD00207849E0
:1026C0001C3108804FF6FF70091D088074480C38D3
:1026D000008820F4407072490C3908800846008850
:1026E00020F0600008806E480C30008840F0010047
:1026F0006B490C3108800846008840F480700880DF
:1027000067481430008820F00200654914310880C1
:102710000846008820F0200008806148001F0088DB
:1027200040F003005E49091F08805D480C380088AE
:1027300040F001005A490C39088010BD10B55348CB
:10274000C06940F008005149C8610846806940F0FE
:10275000040088614F48001F006820F0FF004D49C9
:10276000091F08600846006840F044000860C8047B
:10277000808940F00100C90488810846808940F0C2
:1027800040008881012332220321184602F01AFDFD
:102790000020444908804FF6FF70091D0880414819
:1027A0002838008820F440703E49283908800846BF
:1027B000008820F0600008803A481038008840F017
:1027C00001003849103908800846008840F48070BC
:1027D000088034480838008820F002003149083960
:1027E00008800846008820F0200008802D48203806
:1027F000008840F003002B492039088029482838F8
:10280000008840F0010027492839088010BD0146A2
:10281000022906D003290DD0042914D0052924D17A
:102820001AE04FF08042928C10B200224FF08043A9
:102830009A841CE0194A1832128810B20022174BF1
:1028400018331A8013E0164A1832128810B2002288
:10285000134B18331A800AE0124A121F128810B262
:102860000022104B1B1F1A8001E0002000BF00BF98
:1028700070474FF08040008A4FF08040008A20F07F
:1028800001004FF0804108827047000000100240B4
:102890000000014004080140000C01400C0400400D
:1028A0000C080040280C00400D4800880C480088A7
:1028B00020F001000A49088070470A48008809484A
:1028C000008820F00100074908807047064800880A
:1028D0000548008820F00100034908807047000087
:1028E0001004004010080040100C00406648806949
:1028F00040F01000644988610846806940F020007B
:1029000088616248006820F47F00604908600846DA
:10291000006840F4081008600846406820F4702001
:1029200048600846406840F4003048600846C06887
:10293000C8600846C068C8600846C068C860544897
:10294000006820F47060524908600846006840F44E
:10295000007008604E480C3000684D490C3108602A
:1029600000204C4908604C49C1F894014B4908606B
:102970004949C1F8B001704700B503460A46FFF760
:10298000B5FF4148806940F400503F4988610846DE
:10299000806940F0100088613C48406820F0FF00EA
:1029A0003A4948600846406840F0BB004860084625
:1029B000006820F07F4008600846006840F03B4017
:1029C000086037480380001F0280354814380088AB
:1029D00040F060003249143908800846008840F40D
:1029E000C0400880081D008840F06000091D088074
:1029F0000846008840F4C0400880081F008840F066
:102A00000800091F08800846008840F4006008801C
:102A1000081D008840F00800091D0880084600884D
:102A200040F400600880081D008840F00100091D86
:102A300008800846008840F010000880084600889A
:102A400040F4807008800846008840F48050088078
:102A50000020134908310880091D0880091D0880DD
:102A6000091D0880081D008840F40040091D0880E9
:102A70004FF400400A492C3908800846008840F08D
:102A80000100088000BD000000100240001001405D
:102A9000001401409001224200002242888122421B
:102AA0002C34014010B54FF40051F94800F08BFF71
:102AB0004FF40041F64800F088FF4FF40041F4481D
:102AC00000F081FF10BD10B54FF40051F04800F048
:102AD0007AFF4FF40051EE4800F077FF10BD70B55B
:102AE0000446002520E04FF40051E94800F06DFF56
:102AF00004F0800028B14FF40041E54800F063FF86
:102B000004E04FF40041E24800F05FFF4FF4005151
:102B1000DF4800F058FF4FF40051DD4800F055FF4A
:102B20006006040E681CC5B2082DDCDB70BD10B554
:102B30004FF40041D64800F046FF4FF40051D4480E
:102B400000F041FF4FF40041D14800F03EFF4FF448
:102B50000051CF4800F039FF10BD70B505460C4656
:102B6000FFF7E5FF7820FFF7BAFFFFF7ACFF1CB1D6
:102B70004020FFF7B4FF02E00020FFF7B0FFFFF7AF
:102B8000A2FF2846FFF7ABFFFFF79DFFFFF78AFF85
:102B900070BD10B504461CB90021A620FFF7DDFF6B
:102BA000012C03D10021A720FFF7D7FF10BD10B5DE
:102BB00004463CB90021C820FFF7CFFF0021A12027
:102BC000FFF7CBFF012C07D10021C020FFF7C5FF85
:102BD0000021A020FFF7C1FF10BD10B500218D20FE
:102BE000FFF7BBFF00211420FFF7B7FF0021AF2044
:102BF000FFF7B3FF10BD10B500218D20FFF7ADFF2B
:102C000000211020FFF7A9FF0021AF20FFF7A5FF4B
:102C100010BD70B500241CE004F1B001C8B2002161
:102C2000FFF79BFF00210846FFF797FF00211020C8
:102C3000FFF793FF002508E0964901EBC501085D09
:102C40000121FFF78AFF681CC5B2802DF4DB601CF0
:102C5000C4B2082CE0DB70BD70B500240CE0002588
:102C600006E000208B4901EBC5010855681CC5B280
:102C7000802DF6DB601CC4B2082CF0DBFFF7C9FF27
:102C800070BD70B50A46CE1701EB5676C6F3C70382
:102C9000CE1701EB5676F610A1EBC606F4B2012270
:102CA000A240D5B27B4A02EBC002D25C2A43794EE5
:102CB00006EBC006F25470BD70B50B46CE1701EBA3
:102CC0005676C6F3C702CE1701EB5676F610A1EB87
:102CD000C606F4B20123A340DDB26E4B03EBC00382
:102CE0009B5CDB436B4E06EBC006B354694B03EBB6
:102CF000C0039B5C2B43674E06EBC006B354654B89
:102D000003EBC0039B5CDB43624E06EBC006B3548F
:102D100070BD2DE9F84F05460E4617469846002D22
:102D20000ADB802F08DC002E06DBB8F1400F03DC45
:102D3000BD4201DC464501DDBDE8F88FBD420DD145
:102D4000002406E03019C1B22846FFF79AFF601C44
:102D5000C4B2A8EB0600A042F4DC30E046450CD13A
:102D6000002406E02919C8B23146FFF78AFF601C2B
:102D7000C4B2781BA042F5DC21E0A8EB060000F00D
:102D8000FF0A781B00F0FF0B0AEB8A00400090FB63
:102D9000FBF000F0FF0900240EE004FB09F00A211B
:102DA00090FBF1F03044C0B229190090C8B20099EC
:102DB000FFF767FF601CC4B2781BA042EDDC00BFC8
:102DC000BAE72DE9F04306460F46904600254446F3
:102DD0003BE03A1BD1B27219D0B2FFF752FF3A1B57
:102DE000D1B2721BD0B2FFF74CFF3A19D1B2721BAD
:102DF000D0B2FFF746FF3A19D1B27219D0B2FFF73D
:102E000040FF7A19D1B23219D0B2FFF73AFF7A1BDC
:102E1000D1B23219D0B2FFF734FF7A1BD1B2321BD4
:102E2000D0B2FFF72EFF7A19D1B2321BD0B2FFF722
:102E300028FF6D1C05FB05F004FB040008FB1809C6
:102E4000B9F1000F01DD641E6D1E6000604308FBD8
:102E500008F18842BDDABDE8F0832DE9FF4F81B06B
:102E600080460E461C4600962046E31704EB53733B
:102E7000DB1021464FEAE47C04EB5C7C4FEAEC0C6F
:102E8000A4EBCC0CBCF1000F06D04FF0010C05E018
:102E9000000C01406C3E00204FF0000C63442246C1
:102EA00004EBD27C4FEA6C0C03FB0CF303F0FF0B3A
:102EB00003982038C7B2002547E00C2C07D107EB58
:102EC0004700FE4901EB800010F805A014E0102C2B
:102ED00005D1FB4800EB071010F805A00CE0182CFA
:102EE00007D107EBC700F74901EB800010F805A0F8
:102EF00002E005B0BDE8F08F4FF000091FE00AF0D6
:102F0000800020B131464046FFF7BBFE03E031466A
:102F10004046FFF7D1FE4FEA4A604FEA106A701C44
:102F2000C6B20098301AA04205D1009E08F10100F7
:102F300000F0FF0806E009F1010000F0FF09B9F117
:102F4000080FDCDB00BF681CC5B25D45B5DB00BF08
:102F5000CFE7F0B506460F4614461D4613E022782B
:102F60002B4639463046FFF778FF284605EBD071EF
:102F700006EB6101CEB2C5F18000B04202DA002654
:102F8000B81CC7B2641C2078202802DB20787E2879
:102F9000E5DDF0BD10B50246012000E050430B1EF8
:102FA000A1F10104E1B2F9D110BD2DE9F04F0646BF
:102FB0008A4691461F46099C00252CE0781B401E3E
:102FC000C1B20A20FFF7E6FFB9FBF0F00A21B0FB1F
:102FD000F1F201FB1208B8F1000F0CD1A34604EB8B
:102FE000DB71491001FB0561C8B22346302251460E
:102FF000FFF733FF0DE0A34604EBDB71491001FB43
:103000000561C8B208F13001CAB223465146FFF744
:1030100024FF681CC5B2BD42D0DBBDE8F08F2DE9AE
:10302000FF4F0746884691461C464FF0000B02971B
:10303000CDF804802046E11704EB5171C1F3C701BC
:10304000009160E009FB04F0C11700EB51710BEB3C
:10305000E101CEB20BF1010000F0FF0B002550E0C2
:10306000102C05D1984800EB0610405D03901BE042
:10307000182C07D106EBC600944901EBC000405D57
:10308000039011E0202C05D1914800EBC610405D63
:10309000039009E0402C05D18E4800EB4620405DAE
:1030A000039001E0BDE8FF8F4FF0000A17E003989E
:1030B00000F0010020B141463846FFF7E2FD03E091
:1030C00041463846FFF7F8FD03984010039008F199
:1030D000010000F0FF080AF1010000F0FF0ABAF158
:1030E000080FE4DB781CC7B20298381AA04204D15A
:1030F000029F01980830C0B20190DDF80480681C7E
:10310000C5B2A542ACDB0098411EC9B200910028AF
:1031100098D100BFC6E7804689460026002749E0CF
:103120003FB91023324618218020FFF778FF701C2A
:10313000C6B2464522D14FF0000A1AE0002410E042
:1031400000250AE0644800EBC400415D601E624A4D
:1031500002EBC0004155681CC5B2082DF2DB601CB3
:10316000C4B2902CECDBFFF754FD0AF1010000F033
:10317000FF0A4FEA09105045E0DC0026781CC7B270
:10318000102F00D10027002410E000250AE052484B
:1031900000EBC400415D601E4F4A02EBC000415588
:1031A000681CC5B2082DF2DB601CC4B2902CECDBAD
:1031B000FFF72FFDB4E770B504460D4605F1B001E9
:1031C000C8B20021FFF7C9FC102141EA1410002108
:1031D000FFF7C3FC04F00F0141F001000021FFF7ED
:1031E000BCFC70BD2DE9F05F05460E4617469846BB
:1031F000DDF828B04FF00009CA460024E11704EBBF
:103200005171C910A4EBC10101B901E0601CC4B245
:10321000344614E021462846FFF7CDFFAA460AE0CF
:103220001BF809000121FFF798FC09F101090AF1D7
:10323000010000F0FF0ABA45F2DB601CC4B244454D
:10324000E8DBBDE8F09F08B50121082000F0CAFDC9
:103250004BF60240ADF8000010208DF8030003206B
:103260008DF8020069461D4800F000FB4BF6024154
:103270001A4800F0A8FB0121202000F0B3FD042033
:10328000ADF8000010208DF8030003208DF8020037
:103290006946134800F0EAFA0421114800F093FB54
:1032A0004FF400610D4800F08EFB642001F04DFFEB
:1032B0004FF40061094800F088FB13E0EA6300085E
:1032C0005E6800084E6E0008300200209003002067
:1032D00068040020680600206C3E0020000C0140BD
:1032E00000140140C82001F030FF4FF400613D4858
:1032F00000F069FB4FF480613A4800F066FB002162
:10330000AE20FFF72AFC00210846FFF726FC00212B
:103310001020FFF722FC00214020FFF71EFC0021B7
:103320008120FFF71AFC0021CF20FFF716FC0021B7
:10333000A120FFF712FC0021C820FFF70EFC00219E
:10334000A620FFF70AFC0021A820FFF706FC0021B9
:103350003F20FFF702FC0021D320FFF7FEFB0021F6
:103360000846FFF7FAFB0021D520FFF7F6FB002106
:103370008020FFF7F2FB0021D920FFF7EEFB0021B0
:10338000F120FFF7EAFB0021DA20FFF7E6FB00213E
:103390001220FFF7E2FB0021DB20FFF7DEFB00211C
:1033A0004020FFF7DAFB00212020FFF7D6FB0021A9
:1033B0000220FFF7D2FB00218D20FFF7CEFB00217A
:1033C0001420FFF7CAFB0021A420FFF7C6FB002151
:1033D000A620FFF7C2FB0021AF20FFF7BEFBFFF7DF
:1033E0003BFC08BD000C01407FB505460C460121A1
:1033F000102000F004FDADF80850ADF804400020A6
:10340000ADF80A00ADF8060001A91E4800F022FE42
:10341000012211461B4801F094F936208DF8000076
:1034200000208DF8010003208DF8020001208DF8A6
:103430000300684600F051F90121124801F066F9D5
:103440007FBD10B501210F4801F029FCC8B1012151
:103450000C4801F035FC0220FFF7D9F90A49086051
:103460000320FFF7D4F94042084908600420FFF721
:10347000CEF9074908600520FFF7C9F94042054920
:10348000086010BD00100040100000201400002053
:10349000180000201C00002008B50121082000F0C1
:1034A000A1FC4FF44070ADF8000048208DF80300F7
:1034B00003208DF802006946424800F0D7F908BDA4
:1034C00001460020012902D0022911D107E03E4A1D
:1034D0001268012A01D1012000E0002008E03A4AE8
:1034E000121D1268012A01D1012000E0002000BF56
:1034F00000BF704708B50121080200F073FCFF20EF
:10350000ADF8000048208DF8030003208DF802007C
:1035100069462E4800F0AAF908BD01460020092995
:103520004DD2DFE801F04C050D161F28313A43005B
:10353000274A1268012A01D1012000E000203EE064
:10354000234A121D1268012A01D1012000E0002047
:1035500035E01F4A08321268012A01D1012000E03B
:1035600000202CE01A4A0C321268012A01D10120F5
:1035700000E0002023E0164A10321268012A01D12F
:10358000012000E000201AE0114A14321268012ADA
:1035900001D1012000E0002011E00D4A183212682C
:1035A000012A01D1012000E0002008E0084A1C3275
:1035B0001268012A01D1012000E0002000BF00BFF5
:1035C00070470000000C0140208121420020014092
:1035D0000001244208B50121442000F003FC012031
:1035E000ADF8000028208DF8030003208DF80200BC
:1035F0006946234800F03AF93820ADF80000482029
:103600008DF8030003208DF8020069461D4800F084
:103610002DF908BD10B504461B48007801281DD1BE
:103620001A48006838B119480830006818B11748BE
:10363000001D006890B90A2001F087FD00201249A2
:1036400008701248006808B9022010BD0F48083001
:10365000006808B90320F8E70420F6E70B48006883
:1036600001280BD1094808300068012806D1074815
:10367000001D0068012801D1034908700020E4E71B
:103680000008014000180140681600200C01234288
:103690000948804709480047FEE7FEE7FEE7FEE7E6
:1036A000FEE7FEE7FEE7FEE7FEE7FEE70448054922
:1036B000054A064B704700008B17000831010008CF
:1036C00070460020704C0020704800207048002098
:1036D00031490143314A1160704770B50021002320
:1036E0000F22C47804B32D4C246804F4E064C4F5BC
:1036F000E064210AC1F10403CA40447804FA03F1EA
:103700008478144021430901254C0678A15504789A
:1037100004F01F050124AC4005786D11AD0005F1E2
:10372000E025C5F8004109E0047804F01F050124F4
:10373000AC401C4D0678761145F8264070BD1A4AFB
:103740000A400243154B1B1F1A60704739B1134AD8
:10375000121D12680243114B1B1D1A6006E00F4A2E
:10376000121D126882430D4B1B1D1A6070470428FE
:1037700008D14FF0E021096941F004014FF0E02247
:10378000116107E04FF0E021096921F004014FF0D9
:10379000E0221161704700000000FA050CED00E026
:1037A00000E400E080E100E080FFFF1F10B5044668
:1037B000CC48844208D10121042000F02DFB0021D7
:1037C000042000F029FB46E0C748844208D10121CB
:1037D000082000F021FB0021082000F01DFB3AE04A
:1037E000C248844208D10121102000F015FB0021BD
:1037F000102000F011FB2EE0BD48844208D10121C9
:10380000202000F009FB0021202000F005FB22E031
:10381000B848844208D10121402000F0FDFA00217F
:10382000402000F0F9FA16E0B348844208D10121A3
:10383000802000F0F1FA0021802000F0EDFA0AE08B
:10384000AE48844207D10121801500F0E5FA00213D
:10385000A01500F0E1FA10BD10B50121084600F0F6
:10386000DBFA0021012000F0D7FA10BD2DE9F0416C
:10387000024600250026002000230024002791F89E
:1038800003C00CF00F0591F803C00CF0100CBCF154
:10389000000F03D091F802C04CEA050591F800C072
:1038A000BCF1000F31D0146800202BE04FF0010C68
:1038B0000CFA00F3B1F800C00CEA03069E4220D1D6
:1038C00083004FF00F0C0CFA03F7BC4305FA03FC1E
:1038D0004CEA040491F803C0BCF1280F06D14FF064
:1038E000010C0CFA00FCC2F814C00AE091F803C005
:1038F000BCF1480F05D14FF0010C0CFA00FCC2F8E6
:1039000010C0401C0828D1D31460B1F800C0BCF12D
:10391000FF0F34DD546800202EE000F1080C4FF05A
:10392000010808FA0CF3B1F800C00CEA03069E4245
:1039300021D183004FF00F0C0CFA03F7BC4305FABA
:1039400003FC4CEA040491F803C0BCF1280F05D134
:1039500000F1080C08FA0CF8C2F8148091F803C0C2
:10396000BCF1480F07D100F1080C4FF0010808FA2C
:103970000CF8C2F81080401C0828CED35460BDE873
:10398000F0814FF6FF710180022181700421C17026
:1039900070470246002093680B400BB1012000E005
:1039A000002070470146886880B2704702460020B8
:1039B000D3680B400BB1012000E0002070470146A6
:1039C000C86880B2704701617047416170470AB1B1
:1039D000016100E041617047C16070474FF480327F
:1039E0000A4382618161826182698269704702460D
:1039F0000020434B18684FF68073184040EA0210CD
:103A000008433F4B186070473E49C8617047F0B5A6
:103A10000A46002300240021002500F00046B6F1EC
:103A2000004F02D1364EF16901E0354E7168C0F3A6
:103A3000034583B200F44016B6F5401F08D121F0CB
:103A400070612F4E766826F070662D4F7E6012E012
:103A500000F48016B6F5801F06D1032606FA05F499
:103A6000A14341F0706106E0460D360103FA06F607
:103A7000B14341F0706122B1460D360103FA06F6FA
:103A8000314300F00046B6F1004F02D11C4EF16107
:103A900001E01B4E7160F0BD30B500228B071C0F9A
:103AA0000F2303FA04F2164B08338C1053F824301A
:103AB0009343134C08348D1044F8253023468C1062
:103AC00053F824308C07240F00FA04F423430C4CE1
:103AD00008348D1044F8253030BD0A49DC310860C7
:103AE0007047000000080140000C01400010014038
:103AF0000014014000180140001C0140002001405A
:103B00000000014000002042DF48006840F0010052
:103B1000DD49086008464068DC490840DA494860E9
:103B200008460068DA490840D74908600846006836
:103B300020F4802008600846406820F4FE004860B9
:103B40004FF41F0088607047CF49096821F4803125
:103B5000CD4A11601146096821F480211160B0F549
:103B6000803F03D0B0F5802F0ED106E0C64909682A
:103B700041F48031C44A116007E0C349096841F447
:103B8000A021C14A116000E000BF00BF704710B51E
:103B900001460022002300204A11012A02D1BA4C1A
:103BA000236806E0022A02D1B74C236A01E0B64C32
:103BB000636A01F01F02012494401C400CB10120F3
:103BC00000E0002010BD38B5002000900024002542
:103BD00000BF3120FFF7DBFF05460098401C009036
:103BE0000098B0F5A06F01D0002DF2D03120FFF782
:103BF000CEFF08B1012400E00024204638BD014674
:103C00000020A14A106820F0F80040EAC1001060CE
:103C10007047A04908607047024600209A4B5868D8
:103C200020F47C1042EA01031843974B5860704718
:103C300098490866704701460020934A506820F072
:103C400003000843506070478F48406800F00C0044
:103C50007047014600208C4A506820F0F00008436D
:103C60005060704701460020874A506820F4E060A9
:103C700008435060704701460020834A506820F492
:103C8000605040EAC1005060704729B17E4A527AC4
:103C900002437D4B5A7204E07B4A527A82437A4B4C
:103CA0005A7270477B49D83108607047014600203E
:103CB000754A506820F44040084350607047002126
:103CC000714A20321170704A82F82010012802D007
:103CD00004280AD104E001216B4A2032117005E06A
:103CE0000521694A2032117000E000BF00BF704713
:103CF0006949086070476449096A0143624A116270
:103D00007047654944390860704730B5002100228A
:103D1000002400235C4D6D6805F00C0121B10429DD
:103D200005D0082923D105E05C4D056022E05B4DFC
:103D300005601FE0544D6D6805F47012524D6D68BA
:103D400005F48034022505EB92421CB9544D5543CD
:103D500005600BE04C4D6D6805F400351DB1504D0C
:103D60005543056002E04D4D5543056002E04B4D63
:103D7000056000BF00BF444D6D6805F0F001090902
:103D8000484D6B5C0568DD4045603F4D6D6805F44E
:103D9000E061090A434D6B5C4568DD4085603A4D42
:103DA0006D6805F46051C90A3E4D6B5C4568DD40A5
:103DB000C560354D6D6805F44041890B3A4D6B5C2B
:103DC000C568B5FBF3F5056130BD29B12E4A5269CE
:103DD00002432D4B5A6104E02B4A526982432A4B1D
:103DE0005A61704729B1284A92690243264B9A6169
:103DF00004E0254A92698243234B9A61704729B1B6
:103E0000214AD2690243204BDA6104E01E4AD2699A
:103E100082431D4BDA61704729B11B4AD2680243C5
:103E2000194BDA6004E0184AD2688243164BDA6014
:103E3000704729B1144A12690243134B1A6104E016
:103E4000114A12698243104B1A6170471249403976
:103E5000086070470F49C86470470B49C8717047C4
:103E60000948406A40F0807007494862704701463F
:103E70000020054A92680A400AB1012000E00020B3
:103E80007047014988727047001002400000FFF837
:103E9000FFFFF6FE000042428004424200127A0018
:103EA00000093D00691600207916002010B504466F
:103EB000FE48844208D10121C014FFF7ADFF002164
:103EC000E014FFF7A9FFC4E0B4F1804F08D101214D
:103ED0000846FFF7AEFF00210120FFF7AAFFB8E078
:103EE000F348844208D101210220FFF7A2FF0021FC
:103EF0000220FFF79EFFACE0EE48844208D101218A
:103F00000420FFF796FF00210420FFF792FFA0E0B6
:103F1000E948844208D101210820FFF78AFF0021E7
:103F20000820FFF786FF94E0E448844208D101218D
:103F30001020FFF77EFF00211020FFF77AFF88E0B6
:103F4000DF48844208D101212020FFF772FF0021C1
:103F50002020FFF76EFF7CE0DA48844208D101217F
:103F60004014FFF759FF00216014FFF755FF70E080
:103F7000D548844209D10121C804FFF74DFF002133
:103F80004FF40020FFF748FF63E0D048844209D196
:103F900001210805FFF740FF00214FF48010FFF7D3
:103FA0003BFF56E0CA48844209D101214805FFF78A
:103FB00033FF00214FF40010FFF72EFF49E0C54802
:103FC000844208D101214020FFF733FF0021402027
:103FD000FFF72FFF3DE0C048844208D10121802037
:103FE000FFF727FF00218020FFF723FF31E0BB48C8
:103FF000844208D101218015FFF71BFF0021A01585
:10400000FFF717FF25E0B648844209D101210804D3
:10401000FFF702FF00214FF48030FFF7FDFE18E0AC
:10402000B048844209D101214804FFF7F5FE002180
:104030004FF40030FFF7F0FE0BE0AB48844208D1AC
:1040400001218804FFF7E8FE00214FF48020FFF7EC
:10405000E3FE10BD00220288944B98420ED0994B8B
:1040600098420BD0B0F1804F08D0914B984205D0C8
:10407000904B984202D0904B984204D14FF68F73E8
:104080001A404B881A438D4B984207D08C4B98426C
:1040900004D04FF6FF431A40CB881A4302808B8826
:1040A00083850B880385814B98420BD0854B9842C2
:1040B00008D08B4B984205D08A4B984202D08A4B4D
:1040C000984201D10B7A038601238382704770B531
:1040D000002400220023058C4FF6FE76354005842F
:1040E000028C8388048B4FF68F752C40B51E2C40B4
:1040F0000D882C43751E2A400D892A434D882A437A
:104100006A4DA8420BD06F4DA84208D0744DA8420A
:1041100005D0744DA84202D0734DA84213D14FF67A
:10412000F7752A404D892A434FF6FB752A408D8842
:104130002A434FF6FF652B404FF6FF552B408D89E4
:104140002B43CD892B4383800483CD8885860284CD
:1041500070BD70B5002400220023058C4FF6EF7669
:1041600035400584028C8388048B48F6FF752C400B
:104170004FF6FF452C400D884FF6FF7606EA0525E1
:104180002C434FF6DF752A400D8906EA05152A43B0
:104190004D8806EA05152A43444DA84202D0494DF0
:1041A000A8421DD14FF67F752A404D894FF6FF7604
:1041B00006EA05152A434FF6BF752A408D8806EAA0
:1041C00005152A434FF6FF352B404FF2FF752B4064
:1041D0008D8906EA85052B43CD8906EA85052B43A3
:1041E00083800483CD880587028470BD70B5002468
:1041F00000220023058C4FF6FF6635400584028CB3
:104200008388848B4FF68F752C404FF6FC752C40BD
:104210000D882C434FF6FF552A400D894FF6FF7647
:1042200006EA05252A434D8806EA05252A431F4D3F
:10423000A84202D0234DA8421DD14FF2FF752A405B
:104240004D894FF6FF7606EA05252A434FF6FF35DE
:104250002A408D8806EA05252A434EF6FF752B4035
:104260004DF6FF752B408D8906EA05152B43CD8948
:1042700006EA05152B4383808483CD8885870284D5
:1042800070BD70B5002200230024058C4EF6FF7629
:1042900035400584038C8488828B48F6FF752A405C
:1042A0004FF6FF452A400D8820E00000002C014019
:1042B0000004004000080040000C004000100040D6
:1042C0000014004000340140004C01400050014007
:1042D0000054014000180040001C00400020004035
:1042E0000040014000440140004801404FF6FF7685
:1042F00006EA05252A434DF6FF752B400D8906EA8F
:1043000005352B434D8806EA05352B43FA4DA84267
:1043100002D0FA4DA84208D14BF6FF752C408D898A
:104320004FF6FF7606EA85152C4384808283CD887C
:10433000A0F84050038470BD828B4FF2FF331A40C7
:104340008283828B4FF6FF7303EA01231A43828331
:104350007047F0B50C461546002200210026078C58
:104360004EF6FF7C07EA0C070784828B018C4FF620
:10437000FF7707EA043640F6FF473A404FF6FF77EB
:1043800007EA05273A434FF6FF7707EA03373A4330
:10439000D94FB8420ED0D94FB8420BD0B0F1804FB0
:1043A00008D0D74FB84205D0D64FB84202D0D64F2A
:1043B000B84206D14DF6FF77394046F4805739436D
:1043C00005E047F6FF57394044F48057394382836C
:1043D0000184F0BD828B4FF6F3731A408283828B87
:1043E0000A4382837047F0B50C461546002200212F
:1043F0000026078C4FF6FF6C07EA0C070784828BB8
:10440000018C4FF6FF7707EA04264FF60C773A4007
:104410004FF6FF7707EA03172F433A43B64FB842E8
:104420000ED0B64FB8420BD0B0F1804F08D0B44F89
:10443000B84205D0B34FB84202D0B34FB84206D10C
:104440004FF6FF57394046F48077394305E04FF285
:10445000FF57394044F48077394382830184F0BDAB
:10446000028B4FF2FF331A400283028B4FF6FF7329
:1044700003EA01231A4302837047F0B50C46154640
:10448000002200210026078C4FF6EF7C07EA0C077C
:104490000784028B018C4FF6FF7707EA041640F67B
:1044A000FF473A404FF6FF7707EA03373A434FF6A4
:1044B000FF7707EA05273A438F4FB8420ED08F4F58
:1044C000B8420BD0B0F1804F08D08D4FB84205D024
:1044D0008C4FB84202D08C4FB84206D14FF6DF77EE
:1044E000394046F01007394305E04FF65F77394011
:1044F00044F01007394302830184F0BD028B4FF66C
:10450000F3731A400283028B0A4302837047F0B5AB
:104510000C46154600220021068C4FF6FE773E40E1
:104520000684028B018C4FF60C7632407E1C06EA24
:1045300003162E433243704EB0420ED06F4EB0423F
:104540000BD0B0F1804F08D06D4EB04205D06D4E0B
:10455000B04202D06C4EB04206D14FF6FD763140EB
:1045600044F00106314305E04FF6F576314044F062
:104570000106314302830184F0BD70B505460C4647
:104580005D4885420ED05D4885420BD0B5F1804F25
:1045900008D05B48854205D05A48854202D05A4827
:1045A000854200D100E000BF208850B92389A2884D
:1045B00061882846FFF7ABFFE1882846FFF79EFF9A
:1045C00025E0208804280AD12389A288618828460A
:1045D000FFF753FFE1882846FFF742FF17E02088E6
:1045E00008280AD12389A28861882846FFF7FBFEA4
:1045F000E1882846FFF7EEFE09E02389A28861885A
:104600002846FFF7A6FEE1882846FFF795FE70BD15
:104610002DE9F04105460C4600260127608808B9BF
:10462000022600E00026A088012801D1022700E030
:1046300001272088A0B92389A28861882846FFF72E
:1046400066FFE1882846FFF759FF23893A4631463D
:104650002846FFF712FFE1882846FFF701FF13E025
:104660002389A28861882846FFF707FFE18828464A
:10467000FFF7F6FE23893A4631462846FFF747FF03
:10468000E1882846FFF73AFFBDE8F0810A884B88A9
:104690001A438B881A43CB881A430B891A434B89D8
:1046A0001A438B891A43A0F8442070474FF6FF71D4
:1046B000818000210180C18041800172704700210A
:1046C000018041808180C180018141818181C181DE
:1046D0007047002101804180012181800021C1803B
:1046E000018170470021018041808180C18001816A
:1046F0004181818170470000002C0140003401405D
:104700000004004000080040000C004021B1028875
:1047100042F00102028004E002884FF6FE731A4064
:104720000280704731B1B0F8442042F40042A0F852
:10473000442005E0B0F84420C2F30E02A0F8442063
:1047400070471AB183890B43838102E083898B43CD
:10475000838170478182704741EA0203A0F84830A4
:1047600070471AB183890B43838102E083898B43AD
:104770008381704701894FF6F872114001817047BB
:104780000A46002101894FF68F73194011430181B8
:10479000704730B504460D4629462046FFF7F0FF26
:1047A000208940F00700208130BD2DE9F04104460A
:1047B0000D4616461F46602D06D13B460122314666
:1047C0002046FFF75AFE05E03B46012231462046CF
:1047D000FFF79DFE29462046FFF7D2FF208940F0D3
:1047E00007002081BDE8F08130B50C460021018929
:1047F000C9B24FF6FF7505EA032515432543294342
:10480000018130BD2DE9F04105460E461746984618
:10481000002443463A4631462846FFF7E5FF2C89F7
:104820004FF6F870044044F007044FF68F700440D0
:1048300044F070042C81BDE8F081F0B504460D46CB
:1048400016461F463B46324629462046FFF7CCFF18
:10485000208940F480402081F0BD0185828270472C
:104860000A46002101884FF68F73194011430180D9
:104870007047F0B50C4615461E4600210022002365
:104880000189028B038C4FF6F877394021434FF6AC
:10489000FC473A4040F201173A434FF6DD773B4080
:1048A0004FF6FF7707EA06172F433B430181028348
:1048B0000384F0BD0A460021018B4FF68F73194027
:1048C0001143018370470A460021018B48F6FF73AC
:1048D00019404FF6FF7303EA02231943018370471F
:1048E0000A460021818B4FF68F7319401143818353
:1048F00070470A460021818B48F6FF7319404FF636
:10490000FF7303EA022319438183704721B10288B0
:1049100042F08002028004E002884FF67F731A4062
:104920000280704721B1828842F00402828004E054
:1049300082884FF6FB731A408280704721B18288CB
:1049400042F00802828004E082884FF6F7731A4032
:104950008280704721B1828842F00102828004E0A7
:1049600082884FF6FE731A40828070470A46002103
:10497000018B4FF6F77319401143018370470A46C4
:104980000021018B4FF2FF7319404FF6FF7303EACA
:1049900002231943018370470A460021818B4FF699
:1049A000F77319401143818370470A460021818BB8
:1049B0004FF2FF7319404FF6FF7303EA02231943C6
:1049C000818370470A460021018B4FF6FB73194023
:1049D0001143018370470A460021018B4FF6FF33D4
:1049E00019404FF6FF7303EA02231943018370470E
:1049F0000A460021818B4FF6FB73194011438183D6
:104A000070470A460021818B4FF6FF3319404FF65D
:104A1000FF7303EA02231943818370470A4600218A
:104A2000018B4FF67F7319401143018370470A468B
:104A30000021018BC1F30E014FF6FF7303EA02233D
:104A40001943018370470A460021818B4FF67F731B
:104A500019401143818370470A460021818BC1F3BD
:104A60000E014FF6FF7303EA022319438183704757
:104A70000A460021018C4FF6FD7319401143018451
:104A800070470A460021018C4FF6F7731940114315
:104A9000018470470A460021018C4FF6DF731940EC
:104AA0004FF6FF7303EA02131943018470470A4665
:104AB0000021018C4FF67F7319404FF6FF7303EA14
:104AC00002131943018470470A460021018C4FF6F6
:104AD000FF5319404FF6FF7303EA02231943018481
:104AE00070470A460021018C4FF2FF7319404FF6C0
:104AF000FF7303EA02231943018470470A46002129
:104B0000018C4DF6FF7319404FF6FF7303EA023331
:104B100019430184704730B5002301248C40A3B2AF
:104B2000048C9C430484048C02FA01F5ADB22C433E
:104B3000048430BD30B5002304248C40A3B2048C1F
:104B40009C430484048C02FA01F5ADB22C43048426
:104B500030BD70B5034600200024184618300125EA
:104B60008D40ACB21D8CA5431D8409B1082909D123
:104B700000EB6100056825F07005056005681543C8
:104B800005600EE00D1FC5F34E052844056825F4A9
:104B9000E045056005684FF6FF7606EA02263543D4
:104BA000056070BD21B1028842F00202028004E07B
:104BB00002884FF6FD731A400280704721B10288C7
:104BC00042F00402028004E002884FF6FB731A40B0
:104BD0000280704721B1828842F08002828004E026
:104BE00082884FF67F731A408280704702884FF6A2
:104BF000F7731A40028002880A4302807047828855
:104C00004FF68F731A40828082880A4382807047F1
:104C100002894FF6F8731A40028102890A43028121
:104C2000704702894FF67F731A40028102890A4356
:104C30000281704781847047818570478186704703
:104C40000187704781877047A0F84010704702883D
:104C50004FF6FF431A40028002880A4302807047E1
:104C60000146888E70470146088F70470146888F3D
:104C700070470146B1F8400070470146888C704784
:104C80000146088D704702460020138A0B400BB185
:104C9000012000E000207047CA430282704730B50F
:104CA0000246002000230024158A05EA01039589A5
:104CB00005EA010413B10CB1012000E0002030BD71
:104CC000CA4302827047000010B50446FB48844284
:104CD00009D101218803FFF79FF800214FF480409C
:104CE000FFF79AF832E0F648844209D101214804DE
:104CF000FFF79FF800214FF40030FFF79AF825E006
:104D0000F048844209D101218804FFF792F800217C
:104D10004FF48020FFF78DF818E0EB48844209D16A
:104D20000121C804FFF785F800214FF40020FFF7A8
:104D300080F80BE0E548844208D101210805FFF71F
:104D400078F800214FF48010FFF773F810BD2DE9BB
:104D5000F04786B005460E460024A24600BFA14695
:104D60000027B08900B100BF2F462C8A4CF6FF7097
:104D70000440F08804432C82AC894EF6F3100440C2
:104D8000B08831890843718908430443AC81AC8AF7
:104D90004FF6FF400440B0890443AC8201A8FEF7FF
:104DA000B4FFC648874202D1DDF810A001E0DDF86B
:104DB0000CA0A88900F4004040B10AEBCA0000EB47
:104DC0000A1031684900B0FBF1F807E00AEBCA00AD
:104DD00000EB0A1031688900B0FBF1F86420B8FBE1
:104DE000F0F004012009642101FB1089A88900F476
:104DF000004040B1322000EBC900B0FBF1F000F000
:104E00000700044308E0322000EB09106421B0FBE6
:104E1000F1F000F00F0004432C8106B0BDE8F087EC
:104E20004FF41651016000218180C18001810C2165
:104E3000418100218181704710B502460020108A0F
:104E40004FF2FF0318400B884C8823438C88234380
:104E5000CC8823431843108210BD0021018041807B
:104E60008180C180704721B1828942F400528281E1
:104E700004E082894DF6FF731A4082817047F0B5D5
:104E80000346002400260025002040F66A17B94298
:104E900000D100BF1846C1F3421401F01F060127DC
:104EA00007FA06F5012C01D10C3004E0022C01D1E7
:104EB000103000E014301AB107682F43076002E099
:104EC0000768AF430760F0BD1AB1838A0B43838242
:104ED00002E0838A8B4383827047028A4FF6F07325
:104EE0001A400282028A0A430282704782894FF284
:104EF000FF731A40828182890A438281704721B1FF
:104F0000828942F00202828104E082894FF6FD73B9
:104F10001A4082817047028A4FF6DF731A4002827C
:104F2000028A0A430282704721B1028A42F4804217
:104F3000028204E0028A4BF6FF731A400282704735
:104F4000C1F308028280704701468888C0F30800D8
:104F50007047818941F0010181817047028BD2B293
:104F60000283028B42EA012202837047028B02F421
:104F70007F420283028B0A430283704721B1828AF7
:104F800042F02002828204E0828A4FF6DF731A40E8
:104F90008282704721B1828A42F01002828204E04C
:104FA000828A4FF6EF731A408282704721B1828A5B
:104FB00042F00802828204E0828A4FF6F7731A40B8
:104FC0008282704721B1828942F40042828103E0EB
:104FD0008289C2F30E028281704721B1828A42F433
:104FE0000062828204E0828A4FF2FF731A4082825A
:104FF0007047828A4FF6FB731A408282828A0A4384
:105000008282704721B1828A42F00202828204E0E9
:10501000828A4FF6FD731A40828270470246002052
:10502000B1F5007F00D100BF13880B400BB1012008
:1050300000E00020704701F40072B2F5007F00D15B
:1050400000BFCA430280704770B5024600240023A7
:105050000025002040F66A16B14200D100BFC1F31E
:10506000421501F01F03012606FA03F3012D02D1B8
:105070009689334006E0022D02D1168A334001E0C2
:10508000968A33400C12012606FA04F4168834403E
:1050900013B10CB1012000E0002070BD10B500225A
:1050A000002340F66A14A14200D100BF0A12012475
:1050B0009440A3B2DC43048010BD000000380140DE
:1050C0000044004000480040004C004000500040B8
:1050D00010B56FF00400FEF74AFB2E4800682E4919
:1050E000B0FBF1F02D4908700846007800EB400154
:1050F000C1EBC0104FF6FF7101EAC00028490880DB
:1051000010BD0146254A12784A434FF0E0235A6108
:1051100000229A611A46126942F001021A6100BF28
:105120004FF0E022106900F001021AB100F4803261
:10513000002AF5D04FF0E022126922F001024FF070
:10514000E0231A6100229A6170470146144A1288CE
:105150004A434FF0E0235A6100229A611A461269CD
:1051600042F001021A6100BF4FF0E022106900F026
:1051700001021AB100F48032002AF5D04FF0E0228B
:10518000126922F001024FF0E0231A6100229A61B5
:10519000704700009C01002000127A007E1600205B
:1051A000801600200146072323EA010212022F4B3A
:1051B00018684FF6FF0318402D4B184310432B4B34
:1051C000186070472DE9F0410746884614461D4691
:1051D0002846FFF7E7FFC5F1040007FA00F60F20A5
:1051E000284100EA0800064306F00F06E21704EB28
:1051F000D2625211920002F1E022D2F8002121463F
:10520000E31704EBD3635B11A4EB431C012303FA04
:105210000CF31A432046E31704EBD3635B119B00A6
:1052200003F1E023C3F800211248005D40EA0610B4
:1052300010490855BDE8F081014649060E4A9269B9
:1052400042F001020C4B9A610C4A526822F0E06273
:105250000A4B5A601A4652680A435A60704730BF78
:10526000704772B6704762B6704700000CED00E000
:105270000000FA0500E400E00010024000000140D8
:10528000014600BF704700BFFE4A128802F040028C
:10529000002AF9D0C2B2FB4B1B1D1A80704710B513
:1052A00086B00446012144F20400FEF79BFD4FF452
:1052B0000070ADF8140003208DF8160018208DF84A
:1052C000170005A9F048FEF7D1FA4FF48060ADF859
:1052D000140004208DF8170005A9EB48FEF7C6FA64
:1052E00025208DF8000003208DF801008DF80200C4
:1052F00001208DF803006846FEF7EFF901940020C5
:10530000ADF80800ADF80A00ADF80C00ADF81000DB
:105310000C20ADF80E0001A9DC48FFF718FD0122B2
:1053200040F22551D948FFF7AAFD0121D748FFF7E0
:105330009AFD06B010BD10B540F22551D348FFF7D5
:1053400083FE00287ED0D148FFF7FEFDC4B2D048CE
:10535000008800F4004058BBCD48008800F480402D
:1053600060B10A2C03D00020C949088020E0C84859
:10537000008840F40040C649088019E00D2C06D191
:10538000C348008840F48040C149088010E0C0480C
:105390000088C0F30D00BF490C54BD480088401C74
:1053A000BB49088008460088C72801DD0020088026
:1053B000B748008800F400400028C3D0B4480088F3
:1053C000C0F30D00B44908800020B44908800DE006
:1053D000B048B2490988405CB149B04A128841F8E6
:1053E0002200AE480088401CAC490880AB480088C9
:1053F000A94909888842EBDBAA480068401CA949F2
:10540000086008460168A8A000F050FB0020A749EA
:1054100008700DE0A248A549097850F82120A4A100
:10542000A44800F04FFBA1480078401C9F49087039
:105430009E480078984909888842EBDB9E480068BE
:10544000401C00E046E19C49086000209B49086040
:10545000964908700CE100209949086090489349EA
:10546000097850F82100452815D18D498F480078DA
:10547000401C51F820004E280DD18C480078801C2B
:1054800051F82000442806D101208D49086064208D
:10549000FFF75BFEF3E082488449097850F8210069
:1054A00053287DD17E4981480078401C51F8200066
:1054B0005428F6D17D480078801C51F820003038FF
:1054C00080497D4A126801EB0211086074497748EF
:1054D0000078C01C51F82000782829D17348007842
:1054E000C01C764908601BE074480068401C6C4989
:1054F00051F82000303873496F4A126801EB0211ED
:10550000496801EB810100EB41006E496A4A12686B
:1055100001EB0211486069480068401C6749086057
:105520005F4966480068401C51F820007928DBD1AB
:105530005E4800786449086036E059486249096865
:1055400050F82100792828D15F4800685F49086039
:105550001BE053495D480068401C51F8200030387A
:105560005849554A126801EB0211896801EB810123
:1055700000EB41005349504A126801EB0211886068
:1055800052480068401C5149086045494F4800682E
:10559000401C51F820006E28DBD14B48006800E029
:1055A00061E0401C484908603D4947480068401C8C
:1055B00051F820006E28C0D142483F49096800EBED
:1055C00001108068B42827D93E483B49096800EBA0
:1055D000011040686B2807D204213A48364A126805
:1055E00000EB0210C1603EE036483349096800EB29
:1055F00001104068D52807D9062132482E4A126882
:1056000000EB0210C1602EE005212E482A4A1268E4
:1056100000EB0210C16026E02A482749096800EB28
:10562000011040686B2807D201212648224A1268DF
:1056300000EB0210C16016E022481F49096800EB28
:1056400001104068D52807D903201E491A4A12685C
:1056500001EB0211C86006E002211A48164A1268DE
:1056600000EB0210C16011480078401C0F4908701F
:105670000E480078084909888842FFF6ECAE00BF62
:10568000002025E0004800400008014000380140AB
:1056900088160020EC4200200400002002000020B8
:1056A000B01600208C1600202564000000000020A9
:1056B00025632000D01900209416002098160020A1
:1056C00008000020DC190020901600209C16002005
:1056D000E749088010BD10B586B0044601210420BA
:1056E000FEF780FB01214804FEF789FB0420ADF89A
:1056F000140003208DF8160018208DF8170005A956
:10570000DC48FEF7B3F80820ADF8140004208DF84B
:10571000170005A9D748FEF7A9F826208DF8000044
:1057200003208DF801008DF8020001208DF80300A0
:105730006846FDF7D2FF01940020ADF80800ADF8EF
:105740000A00ADF80C00ADF810000C20ADF80E000A
:1057500001A9C948FFF7FBFA012240F22551C648CA
:10576000FFF78DFB0121C448FFF77DFB06B010BD9C
:1057700070B504460026002500BF8021BE48FFF713
:105780004DFC0028F9D05721BB48FFF7D9FB00BFDB
:105790004021B948FFF742FC0028F9D008E0012079
:1057A000FFF7D3FC0A2E01DD002605E0701CC6B20F
:1057B000B24800780328F2D100BFB14845784FF6CF
:1057C000FF7000EA0525AE4880780543AC480078B4
:1057D000208065800020A949087070BD10B540F296
:1057E0002551A548FFF730FC58B1A348FFF7ACFBA3
:1057F000C1B2A24802780078401CA04B1870A048A3
:10580000815410BD10B586B0044601210820FEF772
:10581000E9FA01218804FEF7F2FA4FF40060ADF8CE
:10582000140004208DF8170005A99648FEF71EF80D
:105830004FF48060ADF8140003208DF81600182096
:105840008DF8170005A98F48FEF710F827208DF86E
:10585000000003208DF8010002208DF802000120D5
:105860008DF803006846FDF738FF01940020ADF87D
:105870000800ADF80A00ADF80C00ADF810000C20DF
:10588000ADF80E0001A98048FFF761FA012240F24D
:1058900025517D48FFF7F3FA01217B48FFF7E3FA32
:1058A00006B010BD10B540F225517748FFF7CCFB8C
:1058B000002839D07448FFF747FBC4B2734800880A
:1058C00000F4004058BB7148008800F4804060B18B
:1058D0000A2C03D000206D49088020E06B48008826
:1058E00040F400406949088019E00D2C06D1674852
:1058F000008840F480406549088010E063480088D3
:10590000C0F30D0062490C5460480088401C5F4998
:10591000088008460088C72801DD00200880402C48
:1059200002D101205B49086010BD00B587B001219C
:10593000C804FEF764FA01211020FEF753FA012192
:105940000846FEF74FFA4FF48060ADF818001820B3
:105950008DF81B0003208DF81A0006A94E48FDF7AC
:1059600085FF4FF40060ADF8180004208DF81B008F
:1059700006A94948FDF77AFF4FF41650029000201F
:10598000ADF80C00ADF80E00ADF81000ADF8140045
:105990000C20ADF8120002A94048FFF7D8F9012207
:1059A00040F225513D48FFF76AFA01213B48FFF7D5
:1059B0005AFA4FF4A060FDF78BFE34208DF80400F6
:1059C00001208DF8050002208DF8060001208DF8D9
:1059D000070001A8FDF781FE07B000BD70B50446C1
:1059E0000026002500BF80212C48FFF717FB002868
:1059F000F9D057212948FFF7A3FA00BF40212748D3
:105A0000FFF70CFB0028F9D008E00120FFF79DFB11
:105A10000A2E01DD002605E0701CC6B22048007881
:105A20000328F2D100BF1F4845784FF6FF7000EA07
:105A300005251C48807805431A4800782080658039
:105A400000201749087070BD10B540F22551134869
:105A5000FFF7FAFA58B11148FFF776FAC1B21048C9
:105A600002780078401C0E4B18700E48815410BD0F
:105A7000881600200008014000440040A5160020C0
:105A8000A2160020000C014000480040A61600208D
:105A90007C440020A816002000100140004C00406B
:105AA000AF160020AC160020704700000FB4044968
:105AB00010B503AA029800F045F910BC5DF814FB7C
:105AC000841600200FB41CB5074B06AA7B44694618
:105AD0000090059800F007F90020694600F016F9DB
